:020000040800F2
:1000000050080020D5000008690B0008ED0A000820
:1000100000000000000000000000000000000000E0
:10002000000000000000000000000000DF0B0008DE
:100030000000000000000000DD0B0008E10B0008DC
:10004000E7000008E7000008E7000008E7000008F4
:10005000E7000008E7000008E7000008E7000008E4
:10006000E7000008E7000008E7000008E7000008D4
:10007000E7000008E700000800000000E7000008B3
:1000800000000000E7000008000000000000000081
:10009000E700000800000000E7000008E700000893
:1000A000E7000008E7000008E7000008E700000894
:1000B000E7000008E700000800000000E700000873
:1000C0000348854600F044F8004800470D0D00083D
:1000D000500800200448804704480047FEE7FEE738
:1000E000FEE7FEE7FEE7FEE7410C0008C10000085E
:1000F00030B50B46014600202022012409E00D46C0
:10010000D5409D4205D31D469540491B2546954047
:1001100040191546521E002DF1DC30BDD2B201E06F
:100120000270401C491EFBD270470022F6E710B552
:1001300013460A4604461946FFF7F0FF204610BD55
:10014000421C0178401C0029FBD1801A7047000036
:10015000064C0125064E05E0E36807CC2B430C3C1A
:1001600098471034B442F7D3FFF7AEFF7818000871
:100170009818000870B5044600F0D0F80546601CD9
:1001800002D004480078241800F0C8F8401BA042B0
:10019000FAD370BD00000020FCB500230124A2E0CA
:1001A00027462A469F403A406FD04D68012D05D022
:1001B000022D03D0112D01D0122D16D185680326F2
:1001C000AC465D00AE46AE406546B543AC46CE6833
:1001D0007546AE4065462E43866046680D79BE433F
:1001E000ED06ED0F9D4035434560C6685F00032571
:1001F000BD40AE46AE4335468E68BE402E43C66017
:100200004E68022E01D0122E14D1DE08B600361828
:100210000196366A5D07B446EE0E0F25B54000968E
:100220006646AE43B4460D69009EB54066462E4311
:10023000019D2E6206687546AE430D79AD07AD0F80
:10024000BD40354305604D68ED004BD5294D6E6BC3
:1002500026436E639E08284DB6007519AC46AD68FE
:100260009E07360F0F27B740BD4305273F07B8420B
:1002700001D1002715E0214FB84201D1012710E03C
:100280001F4FB84202D102270BE02BE01D4FB842AE
:1002900001D1032705E01C4FB84201D1052700E03A
:1002A0000627B7402F436546AF60184D2E684F684C
:1002B0009643FF0300D516432E606E684F68964341
:1002C000BF0300D516436E60AE684F689643FF02C9
:1002D00000D51643AE60EE684F689643BF0200D566
:1002E0001643EE605B1C0A681546DA4000D057E7FB
:1002F000FCBD00000010024000000140000400505E
:1003000000080050000C0050001C00500004014088
:10031000002A01D08161704781627047014880687E
:1003200070470000000000200248816802788918A8
:10033000816070470000002010B508480024016863
:10034000402211430160204600F00AF8002801D045
:10035000012401E000F026F8204610BD00200240F4
:1003600070B504460D4D7D202978C000FFF7C0FE12
:1003700001460B480068FFF7BBFE00F059FB002860
:1003800009D1042C07D200222146401E00F016F8A5
:1003900000206C6070BD012070BD000000000020D6
:1003A0000C0000200448416B012211434163816B22
:1003B00002041143816370470010024010B500F041
:1003C000D5FB10BDF8B50E4605007DD0534800683A
:1003D000C007C00FB0420AD250480168490849001E
:1003E000314301600068C007C00FB04271D1287866
:1003F0004B4C800705D5E068F0218843A968084385
:10040000E0602878C00752D06868022817D0032817
:1004100018D02168012818D08905002959DAE16827
:10042000890889000143E160FFF778FF69680746A2
:10043000022912D003291CD0012926D033E02168DB
:100440008903EAE721688901E7E74907E5E7FFF75C
:1004500065FFC11B3348814223D8E0680007800F45
:100460000228F4D123E0FFF759FFC11B2D48814238
:1004700017D8E0680007800F0328F4D117E0FFF7D2
:100480004DFFC11B274881420BD8E0680007800F51
:100490000128F4D10BE0FFF741FFC11B2148814245
:1004A00001D90320F8BDE0680007800FF3D11B4895
:1004B0000168C907C90FB1420DD90168490849004F
:1004C00031430160006800E003E0C007C00FB042A4
:1004D00001D00120F8BD2878400706D5E068072143
:1004E00009028843E9680843E0602878000707D5D7
:1004F000E0680721C90288432969C9000843E06010
:1005000000F016F8E168084A0906090F515CC84076
:10051000064908600020FFF723FFF8BD00200240D5
:1005200000100240881300005D1800080C00002035
:1005300010B5184AD1680C20084004280BD00828B0
:1005400010D00C2810D050680004410F0120C003C7
:10055000491C884010BD1068C00601D50E4810BD6A
:100560000E4810BD0E4810BD88020E4B000F185CDF
:100570000902D368890F491CDB0301D5084A05E04D
:100580001268D20601D5044A00E0044A5043FFF73E
:10059000AFFD10BD0010024000093D000024F40032
:1005A00000127A006D180008FEB505007ED0FE4CE2
:1005B000E7680C20E6680740012000040640287820
:1005C000C00747D0082F05D00C2F0AD10120000406
:1005D000864206D1206880033CD568680028E5D0B3
:1005E00038E0012069680004814203D12168014399
:1005F000216011E0052301221B0492049942216825
:1006000002D111432160F1E781432160216801405B
:100610000091206890432060686800280DD0FFF7A3
:100620007DFE009005E0FFF779FE0099401A6428EE
:100630007AD820688003F6D50CE0FFF76FFE0090B3
:1006400005E0FFF76BFE0099401A6428F0D8206897
:100650008003F6D42878800755D50923E868042F4D
:100660000DD00C2F01D1002E09D000283BD02168DD
:10067000994301432160FFF751FE064627E02168B8
:10068000490701D5002891D061681F2212029143C9
:100690002A69120211436160216899430143216074
:1006A000FFF746FFE16809060A0F00E0BBE1BF491A
:1006B000895CC840BE4908600020FFF751FE002851
:1006C00072D120E0FFF72AFE801B0228B0D82068F4
:1006D0004007F7D560681F2109028843296909028C
:1006E000084360600FE02068400840002060FFF78A
:1006F00015FE064604E0FFF711FE801B022897D87E
:1007000020684007F7D42878C0065FD5002F0CD0AA
:10071000E869002849D02068FF21013108432060A2
:10072000FFF7FCFD06462DE0E4E02068800502D5D9
:10073000E8690028A7D06068072149038843696AEF
:10074000084360606068298C0002000A09060843BB
:100750006060686A410B0120C003491C8840E16861
:1007600009060A0F9149895CC84091490860002038
:10077000FFF7F6FD002817D128E0FFF7CFFD801B1B
:100780000228A3D820688005F7D5606807214903AF
:100790008843696A084360606068298C0002000A27
:1007A00009060843606011E023E12168FF20013061
:1007B00081432160FFF7B2FD064604E0FFF7AEFD7E
:1007C000801B02289BD820688005F7D42878794EB2
:1007D000000724D568690028306910D0012108433A
:1007E0003061FFF79BFD009005E0FFF797FD009952
:1007F000401A02287ED830698007F6D50FE04008FD
:1008000040003061FFF78AFD009005E0FFF786FDAC
:100810000099401A02286DD830698007F6D42878EC
:10082000400764D500200290A06BC00006D4A06BE6
:10083000012109070843A063012002905E48016876
:10084000C90511D40168821511430160FFF766FDE7
:10085000009005E0FFF762FD0099401A642849D82E
:1008600055480068C005F5D5FF20AA6801308242CE
:1008700003D131690143316111E001218902002A6C
:1008800007D005231B029A4203D132690A43326121
:10089000EFE7326982433261306988433061A8688A
:1008A00000280ED0FFF73AFD009006E0FFF736FD76
:1008B0000099411A414881421CD830698005F5D51C
:1008C0000DE0FFF72BFD009006E0FFF727FD0099F4
:1008D000411A3A4881420DD830698005F5D4029812
:1008E000002804D0A16B012000078143A163287870
:1008F000800600E07CE02ED53148A9694314002928
:1009000016D0A26801210A43A260626B0A436263A7
:10091000016A19430162FFF701FD064604E0FFF793
:10092000FDFC801B022863D8A0688007F7D512E081
:10093000A16849084900A160016A99430162FFF773
:10094000EDFC064604E0FFF7E9FC801B02284FD8C7
:10095000A0688007F7D4A86A002866D00C2F4DD075
:10096000012636060228206805D0B0432060FFF734
:10097000D5FC05463EE0B0432060FFF7CFFC0746BC
:1009800004E0FFF7CBFCC01B022831D820688001AF
:10099000F7D4296BE86AE2680843696BFD231B04FE
:1009A0009A43114308430DE0001002405D1800080F
:1009B0000C0000204010024000700040881300002E
:1009C00000000140E060206830432060FFF7A6FC93
:1009D000054604E0FFF7A2FC401B022808D8206867
:1009E0008001F7D521E0FFF799FC401B022801D9CF
:1009F0000320FEBD20688001F5D416E00128F8D060
:100A0000E06801210904EA6A014091420BD10F21FB
:100A100089042A6B0140914205D1032189050840D0
:100A2000696B884201D00120FEBD0020FEBD0000A0
:100A3000094910B5401E884201D9012010BD074C5C
:100A400060610321081F00F091F80020A0610720D9
:100A50002061002010BD0000FFFFFF0000E000E06B
:100A6000F0B502462032137E012B15D001271776F0
:100A70000223537605686C68AB687026B4430E6831
:100A8000496826438024A34319436E60006881604F
:100A9000577600201076F0BD0220F0BD70B504003E
:100AA00005D025462035687E002802D006E00120CA
:100AB00070BD00202876204600F00AF802206876F3
:100AC000211D206800F0E6F801206876002070BD46
:100AD00000680449884204D10348816B1022114305
:100AE000816370470010004000100240FEE70000E4
:100AF000F0B587B014216846FFF717FB1848C16AA4
:100B000001252943C162C16A29400591C26A0221B7
:100B10000A43C262C06AFF24084005261134360722
:100B20000590002221463046FFF7F2FB0D4F0022D0
:100B300028213846FFF7ECFB00940024019502942D
:100B4000694630460394FFF727FB28200090029463
:100B50006946019503943846FFF71EFB07B0F0BDC8
:100B60000010024000040050704700008307FF227D
:100B7000DB0E9A408907090E994000280BDA00071E
:100B8000000F0838830808489B001818C36993436E
:100B90000B43C3617047830804489B001B18186807
:100BA000904308431860704700ED00E000E400E067
:100BB00010B50021084B0A460020C400E418625416
:100BC000401CC0B28028F8D3491CC9B20829F3D30D
:100BD00000F0F6F810BD00001000002070477047CC
:100BE00010B5FFF7A1FB10BD30B593B038216846B2
:100BF000FFF79BFA14210EA8FFF797FA0F48016838
:100C00000322D2029143C21489180160022000908D
:100C1000102001250024049003950A946846FFF7EC
:100C2000C3FC0F200E90B02010900F95119400215E
:100C300012940EA8FFF7C6FB13B030BD0070004041
:100C400010480168821511430160C1680E4A1140C5
:100C5000C16001680D4A114001608168490849007E
:100C6000816001680122920491430160C168FD2204
:100C700012049143C160002101610549C0038860ED
:100C800070470000001002400C40FF88F6FFF6FE9F
:100C900000ED00E070B5026801239B07114C124D76
:100CA000984203D0A04201D0A84203D17026B2439B
:100CB0004E683243984203D0A04201D0A84204D1EA
:100CC00003231B029A43CB681A4380239A430B6980
:100CD0001A4302608A68C262096881620121416127
:100CE00070BD0000000801400014014002E008C887
:100CF000121F08C1002AFAD170477047002001E096
:100D000001C1121F002AFBD1704700001CB5FFF77C
:100D100013FBFFF769FFFFF7EBFE002411491248B0
:100D20000094019412C004601049C4604160083806
:100D3000FFF7B4FE009469460B480194FFF790FE5C
:100D400000F086F800220A4B11460AA000F0DEF8F7
:100D5000114B0622002111A000F0D8F800F030F865
:100D6000FEE700000010004010040020FFFF00001C
:100D700069120008596F75277265206C6F6F6B6977
:100D80006E6720617420616E204F4C45440A70618B
:100D90006E656C2E0000000024100008596F752746
:100DA0007265206C6F6F6B696E6720617420616E75
:100DB000204F4C45442070616E656C2E0000000091
:100DC00070B50E4E00242046B030C0B200F0EEF8F0
:100DD000022000F0EBF8102000F0E8F80025E80011
:100DE0008019005D00F000F96D1CEDB2802DF6D386
:100DF000641CE4B2082CE6D370BD00001000002093
:100E0000FFB55A789C7850436043C008002186465D
:100E1000E50817E074466418A446019C0020641895
:100E2000E6000A4C341909E006465643F6186644B3
:100E30003779029E3618A755401CC0B28542F3D8B8
:100E4000491CC9B29142E5D3FFBD0000100000204B
:100E500010B5AE2000F0AAF8022000F0A7F810208C
:100E600000F0A4F8402000F0A1F8812000F09EF8E6
:100E7000CF2000F09BF8A12000F098F8C82000F0E7
:100E800095F8A62000F092F8A82000F08FF83F20F7
:100E900000F08CF8D32000F089F8002000F086F8EC
:100EA000D52000F083F8802000F080F8D92000F0F1
:100EB0007DF8F12000F07AF8DA2000F077F81220BF
:100EC00000F074F8DB2000F071F8402000F06EF8BC
:100ED000202000F06BF8022000F068F88D2000F070
:100EE00065F8142000F062F8A42000F05FF8A62056
:100EF00000F05CF8AF2000F059F8AF2000F056F891
:100F0000FFF756FE6420FFF735F910BDFFB581B03D
:100F100004981646477880780D460024009017E024
:100F20000198EA19015D08462038C0B2802A04D32E
:100F3000009A0025D2089219D6B20A290FD032465B
:100F40002946049BFFF75CFFE819C5B2641CE4B2B4
:100F50000198FFF7F5F8A042E2D805B0F0BD00987F
:100F60000025C0088019C6B2F0E70000F8B50024DB
:100F70000D4E05460727002208213046FFF7C8F925
:100F8000391B2846C840C207D20F20213046FFF740
:100F9000BFF9012208213046FFF7BAF9641CE4B218
:100FA000082CE8D3F8BD00000004005070B50524FB
:100FB00006462407002210212046FFF7A9F9FF2545
:100FC0000135002229462046FFF7A2F93046FFF7F7
:100FD000CDFF012229462046FFF79AF90122102170
:100FE0002046FFF795F970BD70B505240646240725
:100FF000012210212046FFF78BF9FF250135002241
:1010000029462046FFF784F93046FFF7AFFF01225B
:1010100029462046FFF77CF9012210212046FFF7E0
:1010200077F970BD000608200000000000000000F5
:10103000002F000000000700070000147F147F1439
:1010400000242A7F2A1200231308646200364955BF
:10105000225000000503000000001C224100000097
:1010600041221C000014083E08140008083E08082D
:10107000000000A060000008080808080000606088
:101080000000002010080402003E5149453E0000C7
:10109000427F4000004261514946002141454B31A9
:1010A000001814127F10002745454539003C4A4975
:1010B00049300001710905030036494949360006E7
:1010C0004949291E0000363600000000563600004F
:1010D00000081422410000141414141400004122CA
:1010E000140800020151090600324959513E007CA2
:1010F0001211127C007F49494936003E414141228C
:10110000007F4141221C007F49494941007F090974
:101110000901003E4149497A007F0808087F000024
:10112000417F4100002040413F01007F08142241DF
:10113000007F40404040007F020C027F007F040897
:10114000107F003E4141413E007F09090906003EF3
:101150004151215E007F091929460046494949311C
:101160000001017F0101003F4040403F001F20403F
:10117000201F003F4038403F0063140814630007FD
:101180000870080700615149454300007F41410054
:1011900000552A552A55000041417F0000040201F4
:1011A00002040040404040400000010204000020D2
:1011B00054545478007F4844443800384444442010
:1011C00000384444487F00385454541800087E09BD
:1011D00001020018A4A4A47C007F08040478000085
:1011E000447D4000004080847D00007F1028440042
:1011F0000000417F4000007C04180478007C080453
:10120000047800384444443800FC2424241800188E
:10121000242418FC007C080404080048545454207A
:1012200000043F444020003C4040207C001C204003
:10123000201C003C4030403C004428102844001C46
:10124000A0A0A07C004464544C4400000877000037
:101250000000007F00000000770800000010081068
:1012600008001414141414140000081020000000C6
:10127000000000000000000000000000000000006E
:10128000F800000000000000333000000000100CE7
:1012900006100C0600000000000000000040C078AE
:1012A00040C0784000043F04043F040400007088FC
:1012B000FC08300000001820FF211E0000F008F09C
:1012C00000E018000000211C031E211E0000F00891
:1012D00088700000001E2123241927211010160EEB
:1012E00000000000000000000000000000000000FE
:1012F000E01804020000000007182040000002046B
:1013000018E0000000004020180700000040408066
:10131000F0804040000202010F01020200000000C4
:10132000F0000000000101011F01010100000000A8
:10133000000000000080B07000000000000000000D
:101340000000000000000101010101010100000096
:10135000000000000000303000000000000000002D
:101360000080601804006018060100000000E01012
:10137000080810E000000F102020100F00001010CF
:10138000F8000000000020203F202000000070082E
:10139000080888700000302824222130000030081E
:1013A00088884830000018202020110E000000C05E
:1013B0002010F8000000070424243F240000F8084F
:1013C00088880808000019212020110E0000E01074
:1013D0008888180000000F112020110E0000380826
:1013E00008C83808000000003F00000000007088B6
:1013F0000808887000001C222121221C0000E01037
:10140000080810E0000000312222110F0000000047
:10141000C0C00000000000003030000000000000EC
:1014200080000000000000806000000000000080DC
:101430004020100800000102040810200040404035
:101440004040404000040404040404040000081068
:1014500020408000000020100804020100007048B5
:10146000080808F0000000003036010000C030C855
:1014700028E810E0000718272423140B000000C000
:1014800038E0000000203C23020227382008F888BA
:101490008888700000203F202020110E00C03008F6
:1014A0000808083800071820202010080008F8084D
:1014B000080810E000203F202020100F0008F888C6
:1014C00088E8081000203F20202320180008F88812
:1014D00088E8081000203F200003000000C030080A
:1014E000080838000007182020221E020008F8080B
:1014F000000008F808203F210101213F20000808D2
:10150000F8080800000020203F202000000000080C
:1015100008F8080800C08080807F00000008F88874
:10152000C028180800203F20012638200008F808AD
:101530000000000000203F20202020300008F8F8A4
:1015400000F8F80800203F003F003F200008F83076
:10155000C00008F808203F200007183F00E01008EE
:10156000080810E0000F10202020100F0008F808D5
:10157000080808F000203F210101010000E01008E8
:10158000080810E0000F18242438504F0008F8888D
:101590008888887000203F2000030C30200070886D
:1015A00008080838000038202121221C00180808EB
:1015B000F8080818000000203F2000000008F80884
:1015C000000008F808001F202020201F000878884D
:1015D0000000C83808000007380E010000F80800B5
:1015E000F80008F800033C0700073C0300081868EF
:1015F000808068180820302C03032C30200838C85D
:1016000000C83808000000203F2000000010080833
:1016100008C83808002038262120201800000000C3
:10162000FE020202000000007F40404000000C303B
:10163000C000000000000000010638C000000202E7
:1016400002FE000000004040407F00000000000457
:101650000202020400000000000000000000000080
:101660000000000000808080808080808000020276
:1016700004000000000000000000000000000080E6
:1016800080808000000019242222223F2008F800D8
:101690008080000000003F112020110E000000009B
:1016A0008080800000000E1120202011000000002A
:1016B000808088F800000E112020103F200000805C
:1016C0008080800000001F222222221300008080E0
:1016D000F0888888180020203F202000000000802B
:1016E0008080808000006B94949493600008F800E0
:1016F0008080800000203F210000203F2000809853
:1017000098000000000020203F2020000000000082
:10171000809898000000C08080807F000008F8005A
:101720000080808000203F24022D30200000080827
:10173000F8000000000020203F2020000080808072
:101740008080808000203F20003F20003F8080007C
:101750008080800000203F210000203F200000808A
:101760008080800000001F202020201F008080003B
:10177000808000000080FFA12020110E00000000EA
:101780008080808000000E112020A0FF808080805B
:10179000008080800020203F212000010000008088
:1017A000808080800000332424242419000080805D
:1017B000E0808000000000001F20200000808000EA
:1017C0000000808000001F202020103F20808080AB
:1017D000000080808000010E30080601008080003B
:1017E00080008080800F300C030C300F0000808060
:1017F00000808080000020312E0E3120008080800B
:10180000000080808080818E70180601000080803A
:1018100080808080000021302C22213000000000D8
:1018200000807C020200000000003F4040000000F9
:1018300000FF00000000000000FF000000000202A6
:101840007C800000000040403F00000000000601D6
:10185000010202040400000000000000000000007B
:101860000000000000010203040607080903040643
:10187000080C101820300000981800080000002004
:1018800010000000EC0C0008A81800081000002050
:1018900040080000FC0C00080100000004000000EB
:0818A000000000000000200020
:04000005080000C12E
:00000001FF
